{
  "contractName": "InventoryContract",
  "abi": [
    {
      "inputs": [],
      "stateMutability": "nonpayable",
      "type": "constructor"
    },
    {
      "anonymous": false,
      "inputs": [
        {
          "indexed": true,
          "internalType": "uint256",
          "name": "transactionId",
          "type": "uint256"
        },
        {
          "indexed": true,
          "internalType": "uint256",
          "name": "productId",
          "type": "uint256"
        },
        {
          "indexed": false,
          "internalType": "uint256",
          "name": "locationId",
          "type": "uint256"
        },
        {
          "indexed": false,
          "internalType": "int256",
          "name": "quantity",
          "type": "int256"
        },
        {
          "indexed": false,
          "internalType": "string",
          "name": "transactionType",
          "type": "string"
        },
        {
          "indexed": true,
          "internalType": "address",
          "name": "executor",
          "type": "address"
        }
      ],
      "name": "InventoryTransactionRecorded",
      "type": "event"
    },
    {
      "anonymous": false,
      "inputs": [
        {
          "indexed": true,
          "internalType": "uint256",
          "name": "productId",
          "type": "uint256"
        },
        {
          "indexed": false,
          "internalType": "string",
          "name": "code",
          "type": "string"
        },
        {
          "indexed": false,
          "internalType": "string",
          "name": "name",
          "type": "string"
        },
        {
          "indexed": false,
          "internalType": "bytes32",
          "name": "dataHash",
          "type": "bytes32"
        },
        {
          "indexed": true,
          "internalType": "address",
          "name": "creator",
          "type": "address"
        }
      ],
      "name": "ProductRegistered",
      "type": "event"
    },
    {
      "anonymous": false,
      "inputs": [
        {
          "indexed": true,
          "internalType": "address",
          "name": "user",
          "type": "address"
        },
        {
          "indexed": true,
          "internalType": "address",
          "name": "authorizer",
          "type": "address"
        }
      ],
      "name": "UserAuthorized",
      "type": "event"
    },
    {
      "anonymous": false,
      "inputs": [
        {
          "indexed": true,
          "internalType": "address",
          "name": "user",
          "type": "address"
        },
        {
          "indexed": true,
          "internalType": "address",
          "name": "revoker",
          "type": "address"
        }
      ],
      "name": "UserRevoked",
      "type": "event"
    },
    {
      "inputs": [
        {
          "internalType": "address",
          "name": "",
          "type": "address"
        }
      ],
      "name": "authorizedUsers",
      "outputs": [
        {
          "internalType": "bool",
          "name": "",
          "type": "bool"
        }
      ],
      "stateMutability": "view",
      "type": "function"
    },
    {
      "inputs": [],
      "name": "owner",
      "outputs": [
        {
          "internalType": "address",
          "name": "",
          "type": "address"
        }
      ],
      "stateMutability": "view",
      "type": "function"
    },
    {
      "inputs": [
        {
          "internalType": "string",
          "name": "",
          "type": "string"
        }
      ],
      "name": "productCodeToId",
      "outputs": [
        {
          "internalType": "uint256",
          "name": "",
          "type": "uint256"
        }
      ],
      "stateMutability": "view",
      "type": "function"
    },
    {
      "inputs": [],
      "name": "productCounter",
      "outputs": [
        {
          "internalType": "uint256",
          "name": "",
          "type": "uint256"
        }
      ],
      "stateMutability": "view",
      "type": "function"
    },
    {
      "inputs": [
        {
          "internalType": "uint256",
          "name": "",
          "type": "uint256"
        }
      ],
      "name": "productIds",
      "outputs": [
        {
          "internalType": "uint256",
          "name": "",
          "type": "uint256"
        }
      ],
      "stateMutability": "view",
      "type": "function"
    },
    {
      "inputs": [
        {
          "internalType": "uint256",
          "name": "",
          "type": "uint256"
        }
      ],
      "name": "products",
      "outputs": [
        {
          "internalType": "uint256",
          "name": "id",
          "type": "uint256"
        },
        {
          "internalType": "string",
          "name": "code",
          "type": "string"
        },
        {
          "internalType": "string",
          "name": "name",
          "type": "string"
        },
        {
          "internalType": "bytes32",
          "name": "dataHash",
          "type": "bytes32"
        },
        {
          "internalType": "address",
          "name": "creator",
          "type": "address"
        },
        {
          "internalType": "uint256",
          "name": "timestamp",
          "type": "uint256"
        },
        {
          "internalType": "bool",
          "name": "active",
          "type": "bool"
        }
      ],
      "stateMutability": "view",
      "type": "function"
    },
    {
      "inputs": [],
      "name": "transactionCounter",
      "outputs": [
        {
          "internalType": "uint256",
          "name": "",
          "type": "uint256"
        }
      ],
      "stateMutability": "view",
      "type": "function"
    },
    {
      "inputs": [
        {
          "internalType": "uint256",
          "name": "",
          "type": "uint256"
        }
      ],
      "name": "transactionIds",
      "outputs": [
        {
          "internalType": "uint256",
          "name": "",
          "type": "uint256"
        }
      ],
      "stateMutability": "view",
      "type": "function"
    },
    {
      "inputs": [
        {
          "internalType": "uint256",
          "name": "",
          "type": "uint256"
        }
      ],
      "name": "transactions",
      "outputs": [
        {
          "internalType": "uint256",
          "name": "id",
          "type": "uint256"
        },
        {
          "internalType": "uint256",
          "name": "productId",
          "type": "uint256"
        },
        {
          "internalType": "uint256",
          "name": "locationId",
          "type": "uint256"
        },
        {
          "internalType": "int256",
          "name": "quantity",
          "type": "int256"
        },
        {
          "internalType": "uint256",
          "name": "unitPrice",
          "type": "uint256"
        },
        {
          "internalType": "string",
          "name": "transactionType",
          "type": "string"
        },
        {
          "internalType": "string",
          "name": "referenceNumber",
          "type": "string"
        },
        {
          "internalType": "bytes32",
          "name": "dataHash",
          "type": "bytes32"
        },
        {
          "internalType": "address",
          "name": "executor",
          "type": "address"
        },
        {
          "internalType": "uint256",
          "name": "timestamp",
          "type": "uint256"
        }
      ],
      "stateMutability": "view",
      "type": "function"
    },
    {
      "inputs": [
        {
          "internalType": "string",
          "name": "_code",
          "type": "string"
        },
        {
          "internalType": "string",
          "name": "_name",
          "type": "string"
        },
        {
          "internalType": "bytes32",
          "name": "_dataHash",
          "type": "bytes32"
        }
      ],
      "name": "registerProduct",
      "outputs": [
        {
          "internalType": "uint256",
          "name": "",
          "type": "uint256"
        }
      ],
      "stateMutability": "nonpayable",
      "type": "function"
    },
    {
      "inputs": [
        {
          "internalType": "uint256",
          "name": "_productId",
          "type": "uint256"
        },
        {
          "internalType": "uint256",
          "name": "_locationId",
          "type": "uint256"
        },
        {
          "internalType": "int256",
          "name": "_quantity",
          "type": "int256"
        },
        {
          "internalType": "uint256",
          "name": "_unitPrice",
          "type": "uint256"
        },
        {
          "internalType": "string",
          "name": "_transactionType",
          "type": "string"
        },
        {
          "internalType": "string",
          "name": "_referenceNumber",
          "type": "string"
        },
        {
          "internalType": "bytes32",
          "name": "_dataHash",
          "type": "bytes32"
        }
      ],
      "name": "recordInventoryTransaction",
      "outputs": [
        {
          "internalType": "uint256",
          "name": "",
          "type": "uint256"
        }
      ],
      "stateMutability": "nonpayable",
      "type": "function"
    },
    {
      "inputs": [
        {
          "internalType": "address",
          "name": "_user",
          "type": "address"
        }
      ],
      "name": "authorizeUser",
      "outputs": [],
      "stateMutability": "nonpayable",
      "type": "function"
    },
    {
      "inputs": [
        {
          "internalType": "address",
          "name": "_user",
          "type": "address"
        }
      ],
      "name": "revokeUser",
      "outputs": [],
      "stateMutability": "nonpayable",
      "type": "function"
    },
    {
      "inputs": [
        {
          "internalType": "string",
          "name": "_code",
          "type": "string"
        }
      ],
      "name": "getProductByCode",
      "outputs": [
        {
          "internalType": "uint256",
          "name": "id",
          "type": "uint256"
        },
        {
          "internalType": "string",
          "name": "code",
          "type": "string"
        },
        {
          "internalType": "string",
          "name": "name",
          "type": "string"
        },
        {
          "internalType": "bytes32",
          "name": "dataHash",
          "type": "bytes32"
        },
        {
          "internalType": "address",
          "name": "creator",
          "type": "address"
        },
        {
          "internalType": "uint256",
          "name": "timestamp",
          "type": "uint256"
        },
        {
          "internalType": "bool",
          "name": "active",
          "type": "bool"
        }
      ],
      "stateMutability": "view",
      "type": "function"
    },
    {
      "inputs": [],
      "name": "getTotalProducts",
      "outputs": [
        {
          "internalType": "uint256",
          "name": "",
          "type": "uint256"
        }
      ],
      "stateMutability": "view",
      "type": "function"
    },
    {
      "inputs": [],
      "name": "getTotalTransactions",
      "outputs": [
        {
          "internalType": "uint256",
          "name": "",
          "type": "uint256"
        }
      ],
      "stateMutability": "view",
      "type": "function"
    },
    {
      "inputs": [
        {
          "internalType": "uint256",
          "name": "_productId",
          "type": "uint256"
        }
      ],
      "name": "getProductTransactions",
      "outputs": [
        {
          "internalType": "uint256[]",
          "name": "",
          "type": "uint256[]"
        }
      ],
      "stateMutability": "view",
      "type": "function"
    },
    {
      "inputs": [
        {
          "internalType": "uint256",
          "name": "_id",
          "type": "uint256"
        },
        {
          "internalType": "bytes32",
          "name": "_dataHash",
          "type": "bytes32"
        },
        {
          "internalType": "bool",
          "name": "_isProduct",
          "type": "bool"
        }
      ],
      "name": "verifyDataIntegrity",
      "outputs": [
        {
          "internalType": "bool",
          "name": "",
          "type": "bool"
        }
      ],
      "stateMutability": "view",
      "type": "function"
    }
  ],
  "bytecode": "0x608060405234801561001057600080fd5b5060008054600160a060020a0319163390811782556001828155600283905590825260066020526040909120805460ff1916909117905561190d806100566000396000f3fe608060405234801561001057600080fd5b5060043610610133576000357c0100000000000000000000000000000000000000000000000000000000900480638da5cb5b116100bf578063cb51bba91161008e578063cb51bba9146102a0578063cdad28d7146102b3578063d6bc4900146102c6578063e36f8dc5146102d9578063ef097fc4146102ec57600080fd5b80638da5cb5b146102245780639ab2dfa31461024f5780639ace38c21461026f578063b5c604ff1461029857600080fd5b80631f16653b116101065780631f16653b146101ad578063570aea8a146101b657806367c2a360146101be5780636baa0006146101d35780637acc0b20146101fe57600080fd5b80631185760c1461013857806314e887e81461015e5780631828983a146101675780631b88cd241461019a575b600080fd5b61014b610146366004611348565b6102ff565b6040519081526020015b60405180910390f35b61014b60025481565b61018a6101753660046113b5565b60066020526000908152604090205460ff1681565b6040519015158152602001610155565b61014b6101a83660046113de565b610623565b61014b60015481565b60015461014b565b6101d16101cc3660046113b5565b610933565b005b61014b6101e1366004611472565b805160208183018101805160058252928201919093012091525481565b61021161020c3660046114af565b610a07565b6040516101559796959493929190611518565b60005461023790600160a060020a031681565b604051600160a060020a039091168152602001610155565b61026261025d3660046114af565b610b60565b6040516101559190611575565b61028261027d3660046114af565b610cb5565b6040516101559a999897969594939291906115b9565b60025461014b565b61014b6102ae3660046114af565b610e25565b6102116102c1366004611472565b610e46565b61018a6102d436600461162d565b611096565b61014b6102e73660046114af565b611193565b6101d16102fa3660046113b5565b6111a3565b60008054600160a060020a031633148061032857503360009081526006602052604090205460ff165b61037c5760405160e560020a62461bcd02815260206004820152601560248201527f5573756172696f206e6f206175746f72697a61646f000000000000000000000060448201526064015b60405180910390fd5b60008451116103d05760405160e560020a62461bcd02815260206004820152601c60248201527f436f6469676f2064652070726f647563746f2072657175657269646f000000006044820152606401610373565b60008351116104245760405160e560020a62461bcd02815260206004820152601c60248201527f4e6f6d6272652064652070726f647563746f2072657175657269646f000000006044820152606401610373565b600584604051610434919061166b565b9081526020016040518091039020546000146104955760405160e560020a62461bcd02815260206004820152601c60248201527f436f6469676f2064652070726f647563746f20796120657869737465000000006044820152606401610373565b600180549060006104a583611687565b9091555050600180546040805160e0810182528281526020808201898152828401899052606083018890523360808401524260a084015260c08301869052600085815260039092529290208151815591519293909290820190610508908261173d565b506040820151600282019061051d908261173d565b5060608201516003820155608082015160048201805473ffffffffffffffffffffffffffffffffffffffff1916600160a060020a0390921691909117905560a082015160058083019190915560c0909201516006909101805460ff191691151591909117905560405182919061059490889061166b565b90815260405190819003602001812091909155600780546001810182556000919091527fa66cc928b5edb82af9bd49922954155ab7b0942694bea4ce44661d9a8736c68801829055339082907fa71624b1c8eca1aa45090d4e8919d76e606b148fe03065826663fab4d556a7df9061061190899089908990611803565b60405180910390a390505b9392505050565b60008054600160a060020a031633148061064c57503360009081526006602052604090205460ff165b61069b5760405160e560020a62461bcd02815260206004820152601560248201527f5573756172696f206e6f206175746f72697a61646f00000000000000000000006044820152606401610373565b6000888152600360205260408120548991036106fc5760405160e560020a62461bcd02815260206004820152601260248201527f50726f647563746f206e6f2065786973746500000000000000000000000000006044820152606401610373565b8660000361074f5760405160e560020a62461bcd02815260206004820152601a60248201527f43616e7469646164206e6f20707565646520736572206365726f0000000000006044820152606401610373565b60008551116107a35760405160e560020a62461bcd02815260206004820152601d60248201527f5469706f206465207472616e73616363696f6e2072657175657269646f0000006044820152606401610373565b600280549060006107b383611687565b909155505060028054604080516101408101825282815260208082018e81528284018e8152606084018e8152608085018e815260a086018e815260c087018e905260e087018d90523361010088015242610120880152600089815260049687905297909720865181559351600185015591519783019790975595516003820155945190850155905191929091600582019061084e908261173d565b5060c08201516006820190610863908261173d565b5060e082015160078201556101008201516008808301805473ffffffffffffffffffffffffffffffffffffffff1916600160a060020a03909316929092179091556101209092015160099091015580546001810182556000919091527ff3f7a9fe364faab93b216da50a3214154f22a0a2b415b23a84c8169e8b636ee30181905560405133908b9083907f848d41164a3bd51a2dfeb223e9a398deb17a2549d3e812b6c2f01d1673e982fa9061091e908e908e908d90611839565b60405180910390a49998505050505050505050565b600054600160a060020a031633146109605760405160e560020a62461bcd02815260040161037390611861565b600160a060020a0381166109b95760405160e560020a62461bcd02815260206004820152601260248201527f446972656363696f6e20696e76616c69646100000000000000000000000000006044820152606401610373565b600160a060020a038116600081815260066020526040808220805460ff19166001179055513392917f58b92d571c78c9eea2500d21c8f2f0e7c1a23b8519f2c08c28c175ff5ced4d2691a350565b60036020526000908152604090208054600182018054919291610a29906116b1565b80601f0160208091040260200160405190810160405280929190818152602001828054610a55906116b1565b8015610aa25780601f10610a7757610100808354040283529160200191610aa2565b820191906000526020600020905b815481529060010190602001808311610a8557829003601f168201915b505050505090806002018054610ab7906116b1565b80601f0160208091040260200160405190810160405280929190818152602001828054610ae3906116b1565b8015610b305780601f10610b0557610100808354040283529160200191610b30565b820191906000526020600020905b815481529060010190602001808311610b1357829003601f168201915b5050505060038301546004840154600585015460069095015493949193600160a060020a03909116925060ff1687565b6060600060025467ffffffffffffffff811115610b7f57610b7f6112a2565b604051908082528060200260200182016040528015610ba8578160200160208202803683370190505b509050600060015b6002548111610c1057600081815260046020526040902060010154859003610bfe5780838381518110610be557610be56118be565b602090810291909101015281610bfa81611687565b9250505b80610c0881611687565b915050610bb0565b5060008167ffffffffffffffff811115610c2c57610c2c6112a2565b604051908082528060200260200182016040528015610c55578160200160208202803683370190505b50905060005b82811015610cac57838181518110610c7557610c756118be565b6020026020010151828281518110610c8f57610c8f6118be565b602090810291909101015280610ca481611687565b915050610c5b565b50949350505050565b6004602052806000526040600020600091509050806000015490806001015490806002015490806003015490806004015490806005018054610cf6906116b1565b80601f0160208091040260200160405190810160405280929190818152602001828054610d22906116b1565b8015610d6f5780601f10610d4457610100808354040283529160200191610d6f565b820191906000526020600020905b815481529060010190602001808311610d5257829003601f168201915b505050505090806006018054610d84906116b1565b80601f0160208091040260200160405190810160405280929190818152602001828054610db0906116b1565b8015610dfd5780601f10610dd257610100808354040283529160200191610dfd565b820191906000526020600020905b815481529060010190602001808311610de057829003601f168201915b505050506007830154600884015460099094015492939092600160a060020a0390911691508a565b60078181548110610e3557600080fd5b600091825260209091200154905081565b60006060806000806000806000600589604051610e63919061166b565b908152602001604051809103902054905080600003610ec75760405160e560020a62461bcd02815260206004820152601660248201527f50726f647563746f206e6f20656e636f6e747261646f000000000000000000006044820152606401610373565b6000600360008381526020019081526020016000206040518060e001604052908160008201548152602001600182018054610f01906116b1565b80601f0160208091040260200160405190810160405280929190818152602001828054610f2d906116b1565b8015610f7a5780601f10610f4f57610100808354040283529160200191610f7a565b820191906000526020600020905b815481529060010190602001808311610f5d57829003601f168201915b50505050508152602001600282018054610f93906116b1565b80601f0160208091040260200160405190810160405280929190818152602001828054610fbf906116b1565b801561100c5780601f10610fe15761010080835404028352916020019161100c565b820191906000526020600020905b815481529060010190602001808311610fef57829003601f168201915b505050918352505060038201546020808301919091526004830154600160a060020a0316604080840191909152600584015460608085019190915260069094015460ff16151560809384015284519185015190850151938501519285015160a086015160c090960151929e50909c50929a5090985090965090945092505050919395979092949650565b600081156111195760008481526003602052604081205490036110fe5760405160e560020a62461bcd02815260206004820152601260248201527f50726f647563746f206e6f2065786973746500000000000000000000000000006044820152606401610373565b5060008381526003602081905260409091200154821461061c565b60008481526004602052604081205490036111795760405160e560020a62461bcd02815260206004820152601560248201527f5472616e73616363696f6e206e6f2065786973746500000000000000000000006044820152606401610373565b50600083815260046020526040902060070154821461061c565b60088181548110610e3557600080fd5b600054600160a060020a031633146111d05760405160e560020a62461bcd02815260040161037390611861565b600054600160a060020a03908116908216036112575760405160e560020a62461bcd02815260206004820152602260248201527f4e6f207365207075656465207265766f63617220616c2070726f70696574617260448201527f696f0000000000000000000000000000000000000000000000000000000000006064820152608401610373565b600160a060020a038116600081815260066020526040808220805460ff19169055513392917f3e5fce8f3e84209fe92cc4d656399f08889d1e6b8ca2cf1ff08baed74cd5af3f91a350565b60e060020a634e487b7102600052604160045260246000fd5b600082601f8301126112cc57600080fd5b813567ffffffffffffffff808211156112e7576112e76112a2565b604051601f8301601f19908116603f0116810190828211818310171561130f5761130f6112a2565b8160405283815286602085880101111561132857600080fd5b836020870160208301376000602085830101528094505050505092915050565b60008060006060848603121561135d57600080fd5b833567ffffffffffffffff8082111561137557600080fd5b611381878388016112bb565b9450602086013591508082111561139757600080fd5b506113a4868287016112bb565b925050604084013590509250925092565b6000602082840312156113c757600080fd5b8135600160a060020a038116811461061c57600080fd5b600080600080600080600060e0888a0312156113f957600080fd5b87359650602088013595506040880135945060608801359350608088013567ffffffffffffffff8082111561142d57600080fd5b6114398b838c016112bb565b945060a08a013591508082111561144f57600080fd5b5061145c8a828b016112bb565b92505060c0880135905092959891949750929550565b60006020828403121561148457600080fd5b813567ffffffffffffffff81111561149b57600080fd5b6114a7848285016112bb565b949350505050565b6000602082840312156114c157600080fd5b5035919050565b60005b838110156114e35781810151838201526020016114cb565b50506000910152565b600081518084526115048160208601602086016114c8565b601f01601f19169290920160200192915050565b87815260e06020820152600061153160e08301896114ec565b828103604084015261154381896114ec565b915050856060830152600160a060020a03851660808301528360a083015282151560c083015298975050505050505050565b6020808252825182820181905260009190848201906040850190845b818110156115ad57835183529284019291840191600101611591565b50909695505050505050565b60006101408c83528b60208401528a60408401528960608401528860808401528060a08401526115eb818401896114ec565b905082810360c08401526115ff81886114ec565b60e08401969096525050600160a060020a039290921661010083015261012090910152979650505050505050565b60008060006060848603121561164257600080fd5b83359250602084013591506040840135801515811461166057600080fd5b809150509250925092565b6000825161167d8184602087016114c8565b9190910192915050565b6000600182016116aa5760e060020a634e487b7102600052601160045260246000fd5b5060010190565b6002810460018216806116c557607f821691505b6020821081036116e85760e060020a634e487b7102600052602260045260246000fd5b50919050565b601f821115611738576000818152602081206020601f860104810160208610156117155750805b6020601f860104820191505b8181101561173457828155600101611721565b5050505b505050565b815167ffffffffffffffff811115611757576117576112a2565b61176b8161176584546116b1565b846116ee565b602080601f8311600181146117a457600084156117885750858301515b60028086026008870290910a6000190419821617865550611734565b600085815260208120601f198616915b828110156117d3578886015182559484019460019091019084016117b4565b50858210156117f357878501516008601f88160260020a60001904191681555b5050505050600202600101905550565b60608152600061181660608301866114ec565b828103602084015261182881866114ec565b915050826040830152949350505050565b83815282602082015260606040820152600061185860608301846114ec565b95945050505050565b6020808252602f908201527f536f6c6f20656c2070726f706965746172696f20707565646520656a6563757460408201527f617220657374612066756e63696f6e0000000000000000000000000000000000606082015260800190565b60e060020a634e487b7102600052603260045260246000fdfea2646970667358221220cd88934e0f79301bae75d0fcf6c2a0682bb1e065347c324f0a4a062dae31a43464736f6c63430008130033",
  "immutableReferences": {},
  "source": "// SPDX-License-Identifier: MIT\npragma solidity ^0.8.0;\n\n/**\n * @title InventoryContract\n * @dev Smart contract para gestión de inventario con trazabilidad blockchain\n */\ncontract InventoryContract {\n    \n    // Estructura para productos\n    struct Product {\n        uint256 id;\n        string code;\n        string name;\n        bytes32 dataHash; // Hash de los datos del producto\n        address creator;\n        uint256 timestamp;\n        bool active;\n    }\n    \n    // Estructura para transacciones de inventario\n    struct InventoryTransaction {\n        uint256 id;\n        uint256 productId;\n        uint256 locationId;\n        int256 quantity; // Positivo para entradas, negativo para salidas\n        uint256 unitPrice;\n        string transactionType;\n        string referenceNumber;\n        bytes32 dataHash; // Hash de los datos de la transacción\n        address executor;\n        uint256 timestamp;\n    }\n    \n    // Variables de estado\n    address public owner;\n    uint256 public productCounter;\n    uint256 public transactionCounter;\n    \n    // Mappings\n    mapping(uint256 => Product) public products;\n    mapping(uint256 => InventoryTransaction) public transactions;\n    mapping(string => uint256) public productCodeToId; // Mapeo código -> ID\n    mapping(address => bool) public authorizedUsers;\n    \n    // Arrays para iteración\n    uint256[] public productIds;\n    uint256[] public transactionIds;\n    \n    // Eventos\n    event ProductRegistered(\n        uint256 indexed productId,\n        string code,\n        string name,\n        bytes32 dataHash,\n        address indexed creator\n    );\n    \n    event InventoryTransactionRecorded(\n        uint256 indexed transactionId,\n        uint256 indexed productId,\n        uint256 locationId,\n        int256 quantity,\n        string transactionType,\n        address indexed executor\n    );\n    \n    event UserAuthorized(address indexed user, address indexed authorizer);\n    event UserRevoked(address indexed user, address indexed revoker);\n    \n    // Modificadores\n    modifier onlyOwner() {\n        require(msg.sender == owner, \"Solo el propietario puede ejecutar esta funcion\");\n        _;\n    }\n    \n    modifier onlyAuthorized() {\n        require(\n            msg.sender == owner || authorizedUsers[msg.sender],\n            \"Usuario no autorizado\"\n        );\n        _;\n    }\n    \n    modifier productExists(uint256 _productId) {\n        require(products[_productId].id != 0, \"Producto no existe\");\n        _;\n    }\n    \n    // Constructor\n    constructor() {\n        owner = msg.sender;\n        productCounter = 0;\n        transactionCounter = 0;\n        authorizedUsers[msg.sender] = true;\n    }\n    \n    /**\n     * @dev Registra un nuevo producto en la blockchain\n     * @param _code Código único del producto\n     * @param _name Nombre del producto\n     * @param _dataHash Hash de los datos completos del producto\n     */\n    function registerProduct(\n        string memory _code,\n        string memory _name,\n        bytes32 _dataHash\n    ) public onlyAuthorized returns (uint256) {\n        require(bytes(_code).length > 0, \"Codigo de producto requerido\");\n        require(bytes(_name).length > 0, \"Nombre de producto requerido\");\n        require(productCodeToId[_code] == 0, \"Codigo de producto ya existe\");\n        \n        productCounter++;\n        uint256 newProductId = productCounter;\n        \n        products[newProductId] = Product({\n            id: newProductId,\n            code: _code,\n            name: _name,\n            dataHash: _dataHash,\n            creator: msg.sender,\n            timestamp: block.timestamp,\n            active: true\n        });\n        \n        productCodeToId[_code] = newProductId;\n        productIds.push(newProductId);\n        \n        emit ProductRegistered(newProductId, _code, _name, _dataHash, msg.sender);\n        \n        return newProductId;\n    }\n    \n    /**\n     * @dev Registra una transacción de inventario\n     * @param _productId ID del producto\n     * @param _locationId ID de la ubicación\n     * @param _quantity Cantidad (positiva para entradas, negativa para salidas)\n     * @param _unitPrice Precio unitario\n     * @param _transactionType Tipo de transacción\n     * @param _referenceNumber Referencia externa (factura, orden, etc.)\n     * @param _dataHash Hash de los datos completos de la transacción\n     */\n    function recordInventoryTransaction(\n        uint256 _productId,\n        uint256 _locationId,\n        int256 _quantity,\n        uint256 _unitPrice,\n        string memory _transactionType,\n        string memory _referenceNumber,\n        bytes32 _dataHash\n    ) public onlyAuthorized productExists(_productId) returns (uint256) {\n        require(_quantity != 0, \"Cantidad no puede ser cero\");\n        require(bytes(_transactionType).length > 0, \"Tipo de transaccion requerido\");\n        \n        transactionCounter++;\n        uint256 newTransactionId = transactionCounter;\n        \n        transactions[newTransactionId] = InventoryTransaction({\n            id: newTransactionId,\n            productId: _productId,\n            locationId: _locationId,\n            quantity: _quantity,\n            unitPrice: _unitPrice,\n            transactionType: _transactionType,\n            referenceNumber: _referenceNumber,\n            dataHash: _dataHash,\n            executor: msg.sender,\n            timestamp: block.timestamp\n        });\n        \n        transactionIds.push(newTransactionId);\n        \n        emit InventoryTransactionRecorded(\n            newTransactionId,\n            _productId,\n            _locationId,\n            _quantity,\n            _transactionType,\n            msg.sender\n        );\n        \n        return newTransactionId;\n    }\n    \n    /**\n     * @dev Autoriza a un usuario para usar el contrato\n     * @param _user Dirección del usuario a autorizar\n     */\n    function authorizeUser(address _user) public onlyOwner {\n        require(_user != address(0), \"Direccion invalida\");\n        authorizedUsers[_user] = true;\n        emit UserAuthorized(_user, msg.sender);\n    }\n    \n    /**\n     * @dev Revoca autorización de un usuario\n     * @param _user Dirección del usuario a revocar\n     */\n    function revokeUser(address _user) public onlyOwner {\n        require(_user != owner, \"No se puede revocar al propietario\");\n        authorizedUsers[_user] = false;\n        emit UserRevoked(_user, msg.sender);\n    }\n    \n    /**\n     * @dev Obtiene información de un producto por código\n     * @param _code Código del producto\n     */\n    function getProductByCode(string memory _code) public view returns (\n        uint256 id,\n        string memory code,\n        string memory name,\n        bytes32 dataHash,\n        address creator,\n        uint256 timestamp,\n        bool active\n    ) {\n        uint256 productId = productCodeToId[_code];\n        require(productId != 0, \"Producto no encontrado\");\n        \n        Product memory product = products[productId];\n        return (\n            product.id,\n            product.code,\n            product.name,\n            product.dataHash,\n            product.creator,\n            product.timestamp,\n            product.active\n        );\n    }\n    \n    /**\n     * @dev Obtiene el número total de productos registrados\n     */\n    function getTotalProducts() public view returns (uint256) {\n        return productCounter;\n    }\n    \n    /**\n     * @dev Obtiene el número total de transacciones registradas\n     */\n    function getTotalTransactions() public view returns (uint256) {\n        return transactionCounter;\n    }\n    \n    /**\n     * @dev Obtiene todas las transacciones de un producto\n     * @param _productId ID del producto\n     */\n    function getProductTransactions(uint256 _productId) public view returns (uint256[] memory) {\n        uint256[] memory productTransactions = new uint256[](transactionCounter);\n        uint256 count = 0;\n        \n        for (uint256 i = 1; i <= transactionCounter; i++) {\n            if (transactions[i].productId == _productId) {\n                productTransactions[count] = i;\n                count++;\n            }\n        }\n        \n        // Redimensionar array al tamaño correcto\n        uint256[] memory result = new uint256[](count);\n        for (uint256 j = 0; j < count; j++) {\n            result[j] = productTransactions[j];\n        }\n        \n        return result;\n    }\n    \n    /**\n     * @dev Verifica la integridad de los datos usando el hash\n     * @param _id ID del registro (producto o transacción)\n     * @param _dataHash Hash a verificar\n     * @param _isProduct True para producto, false para transacción\n     */\n    function verifyDataIntegrity(\n        uint256 _id,\n        bytes32 _dataHash,\n        bool _isProduct\n    ) public view returns (bool) {\n        if (_isProduct) {\n            require(products[_id].id != 0, \"Producto no existe\");\n            return products[_id].dataHash == _dataHash;\n        } else {\n            require(transactions[_id].id != 0, \"Transaccion no existe\");\n            return transactions[_id].dataHash == _dataHash;\n        }\n    }\n}\n\n",
  "sourcePath": "/home/ubuntu/blockchain-inventory-system/contracts/contracts/InventoryContract.sol",
  "compiler": {
    "name": "solc",
    "version": "0.8.19+commit.7dd6d404.Emscripten.clang"
  },
  "schemaVersion": "3.4.16",
  "updatedAt": "2025-07-04T17:23:53.035Z",
  "devdoc": {
    "details": "Smart contract para gestión de inventario con trazabilidad blockchain",
    "kind": "dev",
    "methods": {
      "authorizeUser(address)": {
        "details": "Autoriza a un usuario para usar el contrato",
        "params": {
          "_user": "Dirección del usuario a autorizar"
        }
      },
      "getProductByCode(string)": {
        "details": "Obtiene información de un producto por código",
        "params": {
          "_code": "Código del producto"
        }
      },
      "getProductTransactions(uint256)": {
        "details": "Obtiene todas las transacciones de un producto",
        "params": {
          "_productId": "ID del producto"
        }
      },
      "getTotalProducts()": {
        "details": "Obtiene el número total de productos registrados"
      },
      "getTotalTransactions()": {
        "details": "Obtiene el número total de transacciones registradas"
      },
      "recordInventoryTransaction(uint256,uint256,int256,uint256,string,string,bytes32)": {
        "details": "Registra una transacción de inventario",
        "params": {
          "_dataHash": "Hash de los datos completos de la transacción",
          "_locationId": "ID de la ubicación",
          "_productId": "ID del producto",
          "_quantity": "Cantidad (positiva para entradas, negativa para salidas)",
          "_referenceNumber": "Referencia externa (factura, orden, etc.)",
          "_transactionType": "Tipo de transacción",
          "_unitPrice": "Precio unitario"
        }
      },
      "registerProduct(string,string,bytes32)": {
        "details": "Registra un nuevo producto en la blockchain",
        "params": {
          "_code": "Código único del producto",
          "_dataHash": "Hash de los datos completos del producto",
          "_name": "Nombre del producto"
        }
      },
      "revokeUser(address)": {
        "details": "Revoca autorización de un usuario",
        "params": {
          "_user": "Dirección del usuario a revocar"
        }
      },
      "verifyDataIntegrity(uint256,bytes32,bool)": {
        "details": "Verifica la integridad de los datos usando el hash",
        "params": {
          "_dataHash": "Hash a verificar",
          "_id": "ID del registro (producto o transacción)",
          "_isProduct": "True para producto, false para transacción"
        }
      }
    },
    "title": "InventoryContract",
    "version": 1
  },
  "userdoc": {
    "kind": "user",
    "methods": {},
    "version": 1
  }
}